{
  "_format": "hh-sol-artifact-1",
  "contractName": "WavePortal",
  "sourceName": "contracts/WavePortal.sol",
  "abi": [
    {
      "inputs": [],
      "stateMutability": "payable",
      "type": "constructor"
    },
    {
      "anonymous": false,
      "inputs": [
        {
          "indexed": true,
          "internalType": "address",
          "name": "from",
          "type": "address"
        },
        {
          "indexed": false,
          "internalType": "uint256",
          "name": "timestamp",
          "type": "uint256"
        },
        {
          "indexed": false,
          "internalType": "string",
          "name": "message",
          "type": "string"
        }
      ],
      "name": "NewWave",
      "type": "event"
    },
    {
      "inputs": [],
      "name": "getAllWaves",
      "outputs": [
        {
          "components": [
            {
              "internalType": "address",
              "name": "waver",
              "type": "address"
            },
            {
              "internalType": "string",
              "name": "message",
              "type": "string"
            },
            {
              "internalType": "uint256",
              "name": "timestamp",
              "type": "uint256"
            }
          ],
          "internalType": "struct WavePortal.Wave[]",
          "name": "",
          "type": "tuple[]"
        }
      ],
      "stateMutability": "view",
      "type": "function"
    },
    {
      "inputs": [],
      "name": "getSenderWaves",
      "outputs": [
        {
          "internalType": "uint256",
          "name": "",
          "type": "uint256"
        }
      ],
      "stateMutability": "view",
      "type": "function"
    },
    {
      "inputs": [],
      "name": "getTotalWaves",
      "outputs": [
        {
          "internalType": "uint256",
          "name": "",
          "type": "uint256"
        }
      ],
      "stateMutability": "view",
      "type": "function"
    },
    {
      "inputs": [
        {
          "internalType": "address",
          "name": "",
          "type": "address"
        }
      ],
      "name": "lastWavedAt",
      "outputs": [
        {
          "internalType": "uint256",
          "name": "",
          "type": "uint256"
        }
      ],
      "stateMutability": "view",
      "type": "function"
    },
    {
      "inputs": [
        {
          "internalType": "string",
          "name": "_message",
          "type": "string"
        }
      ],
      "name": "wave",
      "outputs": [],
      "stateMutability": "nonpayable",
      "type": "function"
    },
    {
      "inputs": [
        {
          "internalType": "address",
          "name": "",
          "type": "address"
        }
      ],
      "name": "waveRecord",
      "outputs": [
        {
          "internalType": "uint256",
          "name": "",
          "type": "uint256"
        }
      ],
      "stateMutability": "view",
      "type": "function"
    }
  ],
  "bytecode": "0x60806040526200004f6040518060400160405280601981526020017f54686973206973206120736d61727420636f6e747261637421000000000000008152506200005560201b6200081f1760201c565b620001e9565b620000f5816040516024016200006c919062000162565b6040516020818303038152906040527f41304fac000000000000000000000000000000000000000000000000000000007bffffffffffffffffffffffffffffffffffffffffffffffffffffffff19166020820180517bffffffffffffffffffffffffffffffffffffffffffffffffffffffff8381831617835250505050620000f860201b60201c565b50565b60008151905060006a636f6e736f6c652e6c6f679050602083016000808483855afa5050505050565b60006200012e8262000186565b6200013a818562000191565b93506200014c818560208601620001a2565b6200015781620001d8565b840191505092915050565b600060208201905081810360008301526200017e818462000121565b905092915050565b600081519050919050565b600082825260208201905092915050565b60005b83811015620001c2578082015181840152602081019050620001a5565b83811115620001d2576000848401525b50505050565b6000601f19601f8301169050919050565b6113fd80620001f96000396000f3fe608060405234801561001057600080fd5b50600436106100625760003560e01c8063449d46c01461006757806367e246ef146100835780639a2cdc08146100b3578063a42a4663146100d1578063bd43a90814610101578063f7091d511461011f575b600080fd5b610081600480360381019061007c9190610c01565b61013d565b005b61009d60048036038101906100989190610bd8565b61058d565b6040516100aa9190611046565b60405180910390f35b6100bb6105a5565b6040516100c89190611046565b60405180910390f35b6100eb60048036038101906100e69190610bd8565b6105f0565b6040516100f89190611046565b60405180910390f35b610109610608565b6040516101169190610f04565b60405180910390f35b610127610759565b6040516101349190611046565b60405180910390f35b42601e600360003373ffffffffffffffffffffffffffffffffffffffff1673ffffffffffffffffffffffffffffffffffffffff1681526020019081526020016000205461018a9190611163565b106101ca576040517f08c379a00000000000000000000000000000000000000000000000000000000081526004016101c190611006565b60405180910390fd5b42600360003373ffffffffffffffffffffffffffffffffffffffff1673ffffffffffffffffffffffffffffffffffffffff1681526020019081526020016000208190555060008081548092919061022090611269565b91905055506102646040518060400160405280600d81526020017f2573206861732077617665642100000000000000000000000000000000000000815250336108b8565b600260003373ffffffffffffffffffffffffffffffffffffffff1673ffffffffffffffffffffffffffffffffffffffff16815260200190815260200160002060008154809291906102b490611269565b9190505550600460405180606001604052803373ffffffffffffffffffffffffffffffffffffffff16815260200183815260200142815250908060018154018082558091505060019003906000526020600020906003020160009091909190915060008201518160000160006101000a81548173ffffffffffffffffffffffffffffffffffffffff021916908373ffffffffffffffffffffffffffffffffffffffff1602179055506020820151816001019080519060200190610378929190610ab8565b506040820151816002015550506000606460015442446103989190611163565b6103a29190611163565b6103ac91906112b2565b90506103ed6040518060400160405280601681526020017f52616e646f6d20232067656e6572617465643a2025730000000000000000000081525082610954565b8060018190555060328110156105395761043c6040518060400160405280600781526020017f257320776f6e2100000000000000000000000000000000000000000000000000815250336108b8565b6000655af3107a400090504781111561048a576040517f08c379a000000000000000000000000000000000000000000000000000000000815260040161048190611026565b60405180910390fd5b60003373ffffffffffffffffffffffffffffffffffffffff16826040516104b090610eef565b60006040518083038185875af1925050503d80600081146104ed576040519150601f19603f3d011682016040523d82523d6000602084013e6104f2565b606091505b5050905080610536576040517f08c379a000000000000000000000000000000000000000000000000000000000815260040161052d90610fe6565b60405180910390fd5b50505b3373ffffffffffffffffffffffffffffffffffffffff167f5f7e16dc676677766a70e9c5628aa6c54ddb8b6e5188e2ae1e1f17f1ffbea7164284604051610581929190611061565b60405180910390a25050565b60026020528060005260406000206000915090505481565b60006105e86040518060400160405280601781526020017f5765206861766520257320746f74616c20776176657321000000000000000000815250600054610954565b600054905090565b60036020528060005260406000206000915090505481565b60606004805480602002602001604051908101604052809291908181526020016000905b8282101561075057838290600052602060002090600302016040518060600160405290816000820160009054906101000a900473ffffffffffffffffffffffffffffffffffffffff1673ffffffffffffffffffffffffffffffffffffffff1673ffffffffffffffffffffffffffffffffffffffff1681526020016001820180546106b590611237565b80601f01602080910402602001604051908101604052809291908181526020018280546106e190611237565b801561072e5780601f106107035761010080835404028352916020019161072e565b820191906000526020600020905b81548152906001019060200180831161071157829003601f168201915b505050505081526020016002820154815250508152602001906001019061062c565b50505050905090565b60006107da6040518060400160405280601681526020017f2573206861732077617665642025732074696d6573210000000000000000000081525033600260003373ffffffffffffffffffffffffffffffffffffffff1673ffffffffffffffffffffffffffffffffffffffff168152602001908152602001600020546109f0565b600260003373ffffffffffffffffffffffffffffffffffffffff1673ffffffffffffffffffffffffffffffffffffffff16815260200190815260200160002054905090565b6108b5816040516024016108339190610f26565b6040516020818303038152906040527f41304fac000000000000000000000000000000000000000000000000000000007bffffffffffffffffffffffffffffffffffffffffffffffffffffffff19166020820180517bffffffffffffffffffffffffffffffffffffffffffffffffffffffff8381831617835250505050610a8f565b50565b61095082826040516024016108ce929190610f48565b6040516020818303038152906040527f319af333000000000000000000000000000000000000000000000000000000007bffffffffffffffffffffffffffffffffffffffffffffffffffffffff19166020820180517bffffffffffffffffffffffffffffffffffffffffffffffffffffffff8381831617835250505050610a8f565b5050565b6109ec828260405160240161096a929190610fb6565b6040516020818303038152906040527f9710a9d0000000000000000000000000000000000000000000000000000000007bffffffffffffffffffffffffffffffffffffffffffffffffffffffff19166020820180517bffffffffffffffffffffffffffffffffffffffffffffffffffffffff8381831617835250505050610a8f565b5050565b610a8a838383604051602401610a0893929190610f78565b6040516020818303038152906040527f07c81217000000000000000000000000000000000000000000000000000000007bffffffffffffffffffffffffffffffffffffffffffffffffffffffff19166020820180517bffffffffffffffffffffffffffffffffffffffffffffffffffffffff8381831617835250505050610a8f565b505050565b60008151905060006a636f6e736f6c652e6c6f679050602083016000808483855afa5050505050565b828054610ac490611237565b90600052602060002090601f016020900481019282610ae65760008555610b2d565b82601f10610aff57805160ff1916838001178555610b2d565b82800160010185558215610b2d579182015b82811115610b2c578251825591602001919060010190610b11565b5b509050610b3a9190610b3e565b5090565b5b80821115610b57576000816000905550600101610b3f565b5090565b6000610b6e610b69846110c2565b611091565b905082815260208101848484011115610b8657600080fd5b610b918482856111f5565b509392505050565b600081359050610ba8816113b0565b92915050565b600082601f830112610bbf57600080fd5b8135610bcf848260208601610b5b565b91505092915050565b600060208284031215610bea57600080fd5b6000610bf884828501610b99565b91505092915050565b600060208284031215610c1357600080fd5b600082013567ffffffffffffffff811115610c2d57600080fd5b610c3984828501610bae565b91505092915050565b6000610c4e8383610e81565b905092915050565b610c5f816111b9565b82525050565b610c6e816111b9565b82525050565b6000610c7f82611102565b610c898185611125565b935083602082028501610c9b856110f2565b8060005b85811015610cd75784840389528151610cb88582610c42565b9450610cc383611118565b925060208a01995050600181019050610c9f565b50829750879550505050505092915050565b6000610cf48261110d565b610cfe8185611141565b9350610d0e818560208601611204565b610d178161139f565b840191505092915050565b6000610d2d8261110d565b610d378185611152565b9350610d47818560208601611204565b610d508161139f565b840191505092915050565b6000610d68602783611152565b91507f4661696c656420746f207769746864726177206d6f6e65792066726f6d20636f60008301527f6e74726163742e000000000000000000000000000000000000000000000000006020830152604082019050919050565b6000610dce601083611152565b91507f57616974203330207365636f6e647321000000000000000000000000000000006000830152602082019050919050565b6000610e0e602783611152565b91507f54686520636f6e747261637420646f65736e2774206861766520656e6f75676860008301527f206d6f6e65792e000000000000000000000000000000000000000000000000006020830152604082019050919050565b6000610e74600083611136565b9150600082019050919050565b6000606083016000830151610e996000860182610c56565b5060208301518482036020860152610eb18282610ce9565b9150506040830151610ec66040860182610ed1565b508091505092915050565b610eda816111eb565b82525050565b610ee9816111eb565b82525050565b6000610efa82610e67565b9150819050919050565b60006020820190508181036000830152610f1e8184610c74565b905092915050565b60006020820190508181036000830152610f408184610d22565b905092915050565b60006040820190508181036000830152610f628185610d22565b9050610f716020830184610c65565b9392505050565b60006060820190508181036000830152610f928186610d22565b9050610fa16020830185610c65565b610fae6040830184610ee0565b949350505050565b60006040820190508181036000830152610fd08185610d22565b9050610fdf6020830184610ee0565b9392505050565b60006020820190508181036000830152610fff81610d5b565b9050919050565b6000602082019050818103600083015261101f81610dc1565b9050919050565b6000602082019050818103600083015261103f81610e01565b9050919050565b600060208201905061105b6000830184610ee0565b92915050565b60006040820190506110766000830185610ee0565b81810360208301526110888184610d22565b90509392505050565b6000604051905081810181811067ffffffffffffffff821117156110b8576110b7611370565b5b8060405250919050565b600067ffffffffffffffff8211156110dd576110dc611370565b5b601f19601f8301169050602081019050919050565b6000819050602082019050919050565b600081519050919050565b600081519050919050565b6000602082019050919050565b600082825260208201905092915050565b600081905092915050565b600082825260208201905092915050565b600082825260208201905092915050565b600061116e826111eb565b9150611179836111eb565b9250827fffffffffffffffffffffffffffffffffffffffffffffffffffffffffffffffff038211156111ae576111ad6112e3565b5b828201905092915050565b60006111c4826111cb565b9050919050565b600073ffffffffffffffffffffffffffffffffffffffff82169050919050565b6000819050919050565b82818337600083830152505050565b60005b83811015611222578082015181840152602081019050611207565b83811115611231576000848401525b50505050565b6000600282049050600182168061124f57607f821691505b6020821081141561126357611262611341565b5b50919050565b6000611274826111eb565b91507fffffffffffffffffffffffffffffffffffffffffffffffffffffffffffffffff8214156112a7576112a66112e3565b5b600182019050919050565b60006112bd826111eb565b91506112c8836111eb565b9250826112d8576112d7611312565b5b828206905092915050565b7f4e487b7100000000000000000000000000000000000000000000000000000000600052601160045260246000fd5b7f4e487b7100000000000000000000000000000000000000000000000000000000600052601260045260246000fd5b7f4e487b7100000000000000000000000000000000000000000000000000000000600052602260045260246000fd5b7f4e487b7100000000000000000000000000000000000000000000000000000000600052604160045260246000fd5b6000601f19601f8301169050919050565b6113b9816111b9565b81146113c457600080fd5b5056fea264697066735822122058034083a8a96c15c8158fe68379c1a0182b612b8e10f6206adf3d88dc94559764736f6c63430008000033",
  "linkReferences": {},
  "deployedLinkReferences": {}
}